:020000040800F2
:1000000000040020C1010000C1040000C104000080
:10001000C1040000C1040000C1040000C1040000CC
:10002000C1040000C1040000C1040000812E0000D2
:10003000C1040000C1040000C1040000C1040000AC
:10004000C1040000C1040000C1040000C10400009C
:10005000C1040000C1040000C1040000C10400008C
:10006000C1040000C1040000C104000061360000AA
:10007000B13600000137000051370000A137000001
:10008000F137000041380000B13D0000C10400001C
:10009000C1040000C1040000C1040000C10400004C
:1000A000C1040000C1040000C1040000C10400003C
:1000B000613C0000C1040000C1040000C104000054
:1000C000C1040000C1040000C1040000C10400001C
:1000D000C1040000E1450000C1040000C1040000AB
:1000E000C1040000C1040000C1040000C1040000FC
:1000F000C1040000C1040000C104000091380000E8
:10010000C1040000C1040000C1040000C1040000DB
:10011000C1040000C1040000C1040000C1040000CB
:10012000E13800003139000081390000D139000088
:10013000213A0000C1040000C1040000C104000015
:10014000C1040000C1040000C1040000C10400009B
:10015000713A0000C13A0000113B0000C1040000E8
:10016000C1040000C1040000C1040000C10400007B
:10017000C1040000C1040000C1040000C10400006B
:10018000C1040000C1040000C1040000C10400005B
:10019000C1040000C1040000C1040000C10400004B
:1001A000C1040000C1040000C1040000C10400003B
:1001B000C1040000C1040000C1040000C10400002B
:1001C00072B6214880F30988022080F31488BFF3B7
:1001D0006F8F00F05DF904F053FA1C481C491D4A6A
:1001E00091423CBF41F8040BFAE71B49164A914281
:1001F0003CBF41F8040BFAE71849194A194B9A42D7
:100200003EBF51F8040B42F8040BF8E700201649F2
:10021000164A91423CBF41F8040BFAE700F040F95E
:10022000134C144DAC4203DA54F8041B8847F9E729
:1002300000F046F8104C114DAC4203DA54F8041BA0
:100240008847F9E700F034B90008002055555555A6
:10025000000000200004002000040020F04B0000FB
:10026000000800200008002000080020781200206C
:10027000C0010000C0010000C0010000C00100007A
:100280002DE9F04FC1F80CD0D0F80CD0BDE8F08FBC
:1002900000F076FB01F05CFC002383F31188284614
:1002A000A047002001F05CFA01F04AFC00F050FB8E
:1002B00001F036F800F064FB01F04AFC00DFFEE7D5
:1002C00000B585B002F034FE00F092FA104B114AEE
:1002D0009A61402001F0FCF900F02AF800F060F883
:1002E000002300930C484FF4947102220B4B01F051
:1002F000BFF903900023009309484FF49471022240
:10030000084B01F0B5F90290039801F079FAFEE785
:10031000000C02400000FFFF00080020F103000075
:100320002809002031040000AFF30080AFF3008003
:1003300008B514484FF6FF71202203F009FF124B55
:100340001B78002B0CD111484FF6FF71012203F0EE
:10035000FFFE0F484FF6FF71012203F0F9FE0FE098
:10036000094B1B78012B0BD108484FF6FF71202257
:1003700003F0EEFE06484FF6FF71202203F0E8FE80
:1003800000BF08BD00040240500A0020000C0240DB
:1003900000100240AFF30080AFF30080AFF30080A5
:1003A00008B50E4B00221A600D480E49102202F0CB
:1003B0001FF80D484FF4007140F2823203F0C8FE7E
:1003C00009484FF4806140F2823203F0C1FE0748D1
:1003D000002102F0D5FF00BF08BD00BFBC0A00200D
:1003E000940A0020540A002000000240E01100207E
:1003F00000B583B001900948094902224FF0FF334C
:1004000002F036FA4FF47A7001F09AF9044B1B6847
:1004100004481946002202F023F8ECE7EC11002012
:10042000BC0A0020940A0020AFF30080AFF30080E4
:1004300000B585B0019002AB10481946002202F0C9
:100440005FF80346002B13D102AB0D481946022278
:100450004FF0FF3302F00CFB0346ADF80E30094BB2
:10046000BDF80E20D2431104BDF80E200A439A6154
:1004700041F2883001F064F9DDE700BF940A002002
:1004800010120020000C0240AFF30080AFF3008098
:10049000704700BFAFF30080AFF30080AFF3008080
:1004A000704700BFAFF30080AFF30080AFF3008070
:1004B000FEE700BFAFF30080AFF30080AFF3008032
:1004C000FEE700BFAFF30080AFF30080AFF3008022
:1004D00084B00190019B03F0070303930A4BDB6890
:1004E0000293029A4FF6FF0313400293039B1A02F2
:1004F000029B134343F0BF6343F400330293024B68
:10050000029ADA6004B0704700ED00E0AFF30080BB
:1005100082B0034600918DF807309DF90730002B1B
:100520000CDA0C499DF8073003F00F03043B009AE6
:10053000D2B21201D2B20B441A7609E006499DF9F3
:100540000730009AD2B21201D2B20B4483F80023D2
:1005500002B0704700ED00E000E100E0AFF3008082
:1005600008B50E4B00229A600320FFF7B1FF0C4B39
:100570000B4AD26842F08072DA600A4B094A12686C
:1005800042F001021A606FF004000121FFF7C0FF82
:100590006FF001000221FFF7BBFF08BD00ED00E096
:1005A000F0ED00E0001000E0AFF30080AFF300805A
:1005B00082B020230193019B83F3118802B070471E
:1005C00082B000230193019B83F3118802B070472E
:1005D00008B5FFF7EDFF08BDAFF30080AFF3008073
:1005E00008B5FFF7EDFF08BDAFF30080AFF3008063
:1005F00072B67047AFF30080AFF30080AFF30080B6
:1006000082B000230193019B83F3118862B602B08C
:10061000704700BFAFF30080AFF30080AFF30080FE
:10062000704700BFAFF30080AFF30080AFF30080EE
:100630004FF080435B6A1846704700BFAFF30080FD
:1006400008B502F0DDFC08BDAFF30080AFF3008019
:1006500000B583B00190019802F0DAFC03B05DF8B8
:1006600004FB00BFAFF30080AFF30080AFF3008066
:1006700008B5FFF7DDFF0346184608BDAFF300805D
:1006800008B500F04DF9FFF7BBFF08BDAFF30080E0
:1006900008B5FFF79DFF01F063FA00F089F908BD86
:1006A00008B500F09DF901F063FAFFF799FF08BD66
:1006B00008B5FFF7DDFF0346184608BDAFF300801D
:1006C00000B585B000F0E4F9334BDB690393FFF725
:1006D000EFFF02902AE0304B9A6A039B9B681A4412
:1006E0002D4B9A62039B1B682C4A5A60039B1A6825
:1006F000294BDA61039BDB680093039B0022DA60DD
:10070000254BDA69254B9A4201D1FFF799FFFFF794
:10071000C7FF039B1A69009B10469847FFF7B8FF75
:100720001D4BDB690393FFF7C3FF0290039B9A689D
:10073000194B9B6A0299CB1A9A42CCD9164BDA69AB
:10074000164B9A4200D123E0134B9A6A039B9B6895
:100750001A44029BD31A0193019B012B01D8022357
:100760000193029A019B13441846FFF771FFFFF7AC
:100770009FFF0246084B9B6AD21A0299019B1944BB
:10078000054B9B6ACB1A9A4202D9054800F078F8CB
:1007900005B05DF804FB00BFC00A0020DC0A0020A1
:1007A00020470000AFF30080AFF30080AFF300807C
:1007B00082B00190024B9B69019A9A6102B0704726
:1007C000C00A0020AFF30080AFF30080AFF30080D9
:1007D00082B001900091019B009A9A6102B070472B
:1007E00000B583B00190FFF71BFFFCE7AFF300807B
:1007F00000B585B0FFF7B4FE00F0C2FB00F0F8F9D9
:1008000001F0DEF802F0CCF902F01AFA01F050F92A
:1008100000F06EF91248402100F08AFE0246114BAA
:100820009A61104B9B69012283F820200D4B9B6934
:100830000D4ADA61FFF724FF0C48FFF7B9FF0023E8
:1008400000930B48F82101220A4B00F011FF03909E
:1008500003980949FFF7BCFF05B05DF804FB00BF32
:10086000000F0020C00A00200004002020480000E3
:10087000A00F0020E1070000A0460000AFF30080B9
:1008800000B583B00190FFF7B3FE024B019ADA6224
:10089000FEE700BFC00A0020AFF30080AFF3008086
:1008A00008B500F0F5F8FFF70BFF08BDAFF30080C7
:1008B00082B020230193019B83F3118802B070471B
:1008C00082B000230193019B83F3118802B070472B
:1008D00008B5FFF7EDFF08BDAFF30080AFF3008070
:1008E00008B5FFF7EDFF08BDAFF30080AFF3008060
:1008F0004FF080435B6A1846704700BFAFF300803B
:1009000008B5FFF7F5FF0346184608BDAFF30080B2
:1009100008B5FFF7F5FF0346184608BDAFF30080A2
:1009200008B5064B1B6B002B03D1044B5B6B002BF4
:1009300002D00348FFF7A4FF08BD00BFC00A002093
:10094000C0460000AFF30080AFF30080AFF300803B
:1009500008B5074B1B6B002B03D1054B5B6B002BC2
:1009600002D00448FFF78CFF014B01225A6308BDF7
:10097000C00A0020C8460000AFF30080AFF300803B
:1009800008B5074B1B6B002B03D1054B5B6B002B92
:1009900002DC0448FFF774FF014B00225A6308BDD4
:1009A000C00A0020D0460000AFF30080AFF3008003
:1009B00008B5074B1B6B002B03DD054B5B6B002B56
:1009C00002D00448FFF75CFF014B01225A6308BDC7
:1009D000C00A0020D8460000AFF30080AFF30080CB
:1009E00008B5074B1B6B002B03DD054B5B6B002B26
:1009F00002DC0448FFF744FF014B00225A6308BDA4
:100A0000C00A0020E0460000AFF30080AFF3008092
:100A100008B5FFF75DFF094B1B6B002B03DB074B92
:100A20005B6B002B02D00648FFF72AFF034B1B6BC2
:100A30005A1C024B1A63FFF753FF08BDC00A00207F
:100A4000E8460000AFF30080AFF30080AFF3008012
:100A500008B5FFF73DFF094B1B6B002B03DD074B70
:100A60005B6B002B02D00648FFF70AFF034B1B6BA2
:100A70005A1E024B1A63FFF733FF08BDC00A00205D
:100A8000F0460000AFF30080AFF30080AFF30080CA
:100A900008B5064B1B6B002B03DB044B5B6B002B79
:100AA00002DC0348FFF7ECFE08BD00BFC00A0020CF
:100AB000F8460000AFF30080AFF30080AFF3008092
:100AC00008B5064B1B6B002B03D1044B5B6B002B53
:100AD00002DC0348FFF7D4FE08BD00BFC00A0020B7
:100AE00000470000AFF30080AFF30080AFF3008059
:100AF000034B40229A63024B024ADA63704700BFFD
:100B0000C00A0020000B0020AFF30080AFF300808C
:100B100010B582B00190134BDC6BFFF7F9FE034672
:100B20002360104BDB6B0F4A92695A600D4BDB6BF5
:100B3000019A526A9A600B4BDB6B019A92F8202063
:100B40001A73084BDB6B03F11002064BDA63054B9B
:100B5000DA6B054B9A4202D3024B044ADA6302B0C5
:100B600010BD00BFC00A0020000F0020000B0020B5
:100B70004FF080435B6A1846704700BFAFF30080B8
:100B800000B583B00190019802F022FA03B05DF83D
:100B900004FB00BFAFF30080AFF30080AFF3008031
:100BA00008B502F02DFA08BDAFF30080AFF3008066
:100BB00000B583B00190019802F02AFA03B05DF805
:100BC00004FB00BFAFF30080AFF30080AFF3008001
:100BD00008B5FFF7CDFF0346184608BDAFF3008008
:100BE00008B5FFF7F5FF0346184608BDAFF30080D0
:100BF000064B074ADA61054B054A1A62034B4FF070
:100C0000FF325A62014B00229A627047C00A0020EC
:100C1000DC0A0020AFF30080AFF30080AFF3008068
:100C200000B589B00390029101920093FFF730FF65
:100C3000039B002B05D0019B002B02D0029B002BB5
:100C400002D13A48FFF71CFE039B009A1A61039BEE
:100C5000019ADA60FFF7C4FF0590029B012B01D8CF
:100C600002230293324BDA69324B9A4219D1304B4C
:100C7000059A9A622E4B039ADA612D4B039A1A62F7
:100C8000039B2C4A1A60039B2A4A5A60039B029AD0
:100C90009A60274B9A6A029B13441846FFF770FF2D
:100CA00040E0059A029B1A44214B9B6AD31A069393
:100CB0001F4BDB699A68069B9A4206D91C4B9A6ABD
:100CC000069B13441846FFF773FF194BDB69079324
:100CD00007E0079B9B68069AD31A0693079B1B683D
:100CE0000793079B9A68069B9A42F2D3039B079A45
:100CF0001A60039B1B685A68039B5A60039B5B68DE
:100D0000039A1A60079B039A5A60039B069A9A609B
:100D1000079B9A68069BD21A079B9A60044B4FF078
:100D2000FF325A6209B05DF804FB00BF3047000093
:100D3000C00A0020DC0A0020AFF30080AFF300807F
:100D400000B585B00190FFF7A3FE019B002B02D1F7
:100D50003648FFF795FD019BDB68002B02D1334835
:100D6000FFF78EFD324BDA69019B9A421CD0019B42
:100D70005B68019A12681A60019B1B68019A5268AD
:100D80005A60019B0022DA60019B1A68294B9A4243
:100D900009D0019B1B68019A12689168019A9268B8
:100DA0000A449A603EE03DE0019B1A68204BDA61FC
:100DB0001F4BDB691F4A5A60019B0022DA601C4B03
:100DC000DA691C4B9A4202D1FFF7EAFE2AE0184B7F
:100DD000DB69174AD2699168019A92680A449A605D
:100DE000FFF7FEFE0246124B9B6AD31A0293104B8A
:100DF000DB699A68029B9A4200D813E00C4BDB69CE
:100E00009A68029BD31A0393039B012B01D80223F8
:100E10000393074B9A6A029B1A44039B1344184698
:100E2000FFF7C6FE05B05DF804FB00BF40470000B9
:100E3000C00A0020DC0A0020AFF30080AFF300807E
:100E400082B020230193019B83F3118802B0704785
:100E500082B000230193019B83F3118802B0704795
:100E600008B5FFF7EDFF08BDAFF30080AFF30080DA
:100E700008B5FFF7EDFF08BDAFF30080AFF30080CA
:100E800082B00190019B019A1A60019B019A5A60FD
:100E900002B07047AFF30080AFF30080AFF3008083
:100EA00084B00190019B1B680393039B1A68019B0C
:100EB0001A60019B1B68019A5A60039B184604B094
:100EC000704700BFAFF30080AFF30080AFF3008046
:100ED00082B00190019B5B68019A12681A60019BC5
:100EE0001B68019A52685A60019B184602B070470D
:100EF00008B5FFF7CDFD064B1B689A68044B9B694C
:100F00009B689A4294BF00230123DBB2184608BDB8
:100F1000C00A0020AFF30080AFF30080AFF3008081
:100F200008B5FFF79DFF00F01BFEFFF741FD08BD70
:100F300008B5FFF755FD00F01BFEFFF799FF08BD50
:100F400000B583B00190FFF7A3FD019BDB68002B88
:100F50000CBF00230123DBB2184603B05DF804FB8D
:100F600000B583B00190FFF793FD019B9B685A1C6D
:100F7000019B9A6003B05DF804FB00BFAFF30080F3
:100F800008B50648FFF77CFF044B00229A60034B2C
:100F9000024A1A61014B014A5A6108BDC00A002089
:100FA00000B585B00190FFF773FD019B002B02D1C6
:100FB0001848FFF765FC019B93F82030002B04D004
:100FC000019B93F820300F2B02D11248FFF758FCF9
:100FD000019B002283F820200F4B0393039B1B6887
:100FE0000393039B9A68019B9B689A42F6D2019BEC
:100FF000039A1A60039B5A68019B5A60019B5B68C5
:10100000019A1A60039B019A5A60019B184605B029
:101010005DF804FB50470000C00A0020AFF30080D9
:1010200010B584B003468DF80730FFF749FD194B22
:101030009B690393039B9DF8072083F820201548A4
:10104000FFF72EFF0246134B9A61124B9B69012258
:1010500083F820200398FFF75BFD0E4B9B69184631
:10106000039900F04DFDEFF309831C4623460293DC
:10107000029BA3F12402039BDB699A4202D2064839
:10108000FFF7FEFB034B9B6918460399FFF7F8F83F
:1010900004B010BDC00A002010470000AFF300806C
:1010A00000B585B00190019B0393FFF739FF039BC7
:1010B00093F82030072B24D801A252F823F000BF68
:1010C000E11000000311000003110000E710000010
:1010D000FB100000F110000003110000FB100000E5
:1010E000FFF726FF17E0039B5B6A00221A6009E006
:1010F000039B5B6A1846FFF733FF0398FFF7E8FE90
:1011000000E000BF039B4FF0FF325A620398FFF7E5
:1011100047FFFFF70DFF05B05DF804FBAFF300805C
:1011200000B589B0034600918DF80730FFF7C8FC81
:10113000009BB3F1FF3F19D0124B9B6903AA1046E5
:101140000099114AFFF76CFD9DF807301846FFF72C
:1011500067FF03AB1846FFF7F3FE0346002B04D0EE
:1011600003AB1846FFF7ECFD05E004E09DF80730FF
:101170001846FFF755FF034B9B695B6A184609B099
:101180005DF804FBC00A0020A1100000AFF300804E
:1011900010B584B001900091FFF792FC019B009A7A
:1011A0005A62019B9A68194B9B699B689A4203D8C3
:1011B0000198FFF7F5FE26E0144B9B691846FFF7F0
:1011C000EFFE0390114B019A9A61019B012283F873
:1011D00020200398FFF79CFC0198039900F090FCF5
:1011E000EFF309831C4623460293029BA3F12402DA
:1011F000039BDB699A4202D20548FFF741FB019845
:101200000399FFF73DF804B010BD00BFC00A0020ED
:1012100010470000AFF30080AFF30080AFF3008011
:1012200008B5FFF74DFCFFF763FE0346002B01D026
:1012300000F01EF808BD00BFAFF30080AFF30080E0
:1012400082B0094B1B689B680193074B9B699B68A5
:101250000093019A009B9A4294BF00230123DBB2C2
:10126000184602B0704700BFC00A0020AFF30080EC
:1012700010B584B0254B9B6902932448FFF710FEFC
:101280000246224B9A61214B9B69012283F8202060
:10129000029B002283F820201C4B0393039B1B68B6
:1012A0000393039B9A68029B9B689A42F6D8029B21
:1012B000039A1A60039B5A68029B5A60029B5B6800
:1012C000029A1A60039B029A5A600298FFF720FC68
:1012D0000E4B9B691846029900F012FCEFF309834C
:1012E0001C4623460193019BA3F12402029BDB6968
:1012F0009A4202D20648FFF7C3FA044B9B6918468C
:101300000299FEF7BDFF04B010BD00BFC00A002067
:1013100010470000AFF30080AFF30080AFF3008010
:1013200008B5FFF7A5FF08BDAFF30080AFF300805D
:1013300082B020230193019B83F3118802B0704790
:1013400082B000230193019B83F3118802B07047A0
:1013500082B00190019B019A1A6002B0704700BFF1
:1013600082B00190019B1A68019B9A420CBF002336
:101370000123DBB2184602B0704700BFAFF3008014
:1013800082B00190019B019A1A60019B019A5A60F8
:1013900002B07047AFF30080AFF30080AFF300807E
:1013A00082B00190019B1A68019B9A420CBF0023F6
:1013B0000123DBB2184602B0704700BFAFF30080D4
:1013C00082B001900091009B1A68019B1A60009BFB
:1013D000019A1A6002B07047AFF30080AFF300804B
:1013E00084B00190019B1B680393039B1A68019BC7
:1013F0001A60039B184604B0704700BFAFF300802B
:1014000082B001900091019B009A1A60009B5A687B
:10141000019B5A60019B5B68019A1A60009B019ACC
:101420005A6002B0704700BFAFF30080AFF3008096
:1014300084B00190019B1B680393039B1A68019B76
:101440001A60019B1B68019A5A60039B184604B0FE
:10145000704700BFAFF30080AFF30080AFF30080B0
:1014600008B5FFF765FF00F06BFBFFF771FA08BDE9
:1014700008B5FFF785FA00F06BFB094B1A68084BBB
:101480009A420AD0064B9B699A68054B1B689B6879
:101490009A4202D20348FFF7F3F9FFF751FF08BD64
:1014A000C00A002070470000AFF30080AFF3008057
:1014B00000B583B00190019B002B02D10448FFF7D7
:1014C000DFF908200199FFF72BFE03B05DF804FB5C
:1014D000A0470000AFF30080AFF30080AFF30080BF
:1014E00000B585B0019000910198FFF759FF0346C0
:1014F00083F00103DBB2002B02D00C48FFF7C0F9E8
:101500000198FFF795FF0390039B93F82030042B7D
:1015100002D00648FFF7B4F9039B009A5A62039879
:10152000FFF73EFD05B05DF804FB00BFE04700009B
:1015300000B583B001900091019B009A9A60019BD5
:10154000022283F82020019B002283F82120019BA6
:10155000009A1A64019B0022DA63019B00229A63BD
:10156000019B012283F82220019B00229A61019BAA
:10157000154A1A61144B5A69019B5A61019B5B69B8
:10158000019A1A61104B019A5A61019B283318463F
:10159000FFF7DEFE019B2C331846FFF7F1FE019B9F
:1015A00003F16002019BDA61019B4833184600F0A9
:1015B00027FA019B4833184600F03AFA019B184677
:1015C00003B05DF804FB00BFC00A0020AFF3008049
:1015D00084B00390029113468DF8073005E0039B19
:1015E0005A1C03929DF807201A70039A029B9A4294
:1015F000F5D304B0704700BFAFF30080AFF30080B5
:1016000000B587B00390029101920093039B05936C
:10161000FFF73EFA039B002B08D0029BE72B05D96E
:10162000019B7F2B02D8009B002B02D10E48FFF7B5
:1016300027F9029B243B039A1A44059BDA60059B19
:10164000DB68009A1A60059BDB68089A5A60059B64
:10165000DB68064A1A6205980199FFF769FF03469D
:10166000184607B05DF804FB6047000091020000D7
:1016700000B589B00590049103920293059B6033F5
:1016800005981946FF22FFF7A3FF059B03F16002AF
:101690000599049B0B44104619465522FFF798FF05
:1016A000FFF7DEFE0A9B009305980499039A029BBC
:1016B000FFF7A6FF079007980021FFF769FDFFF7E6
:1016C000D7FE079B184609B05DF804FBAFF3008016
:1016D00000B585B00190019B7F2B02D91348FFF71D
:1016E000CFF8FFF7BDFE124B9B691B6C0393104BA9
:1016F0009B699A680E4B9B691B6C9A4205D00C4BF8
:101700009B699A68019B9A4203D2094B9B69019A93
:101710009A60074B9B69019A1A64FFF781FDFFF7F6
:10172000A7FE039B184605B05DF804FB8047000048
:10173000C00A0020AFF30080AFF30080AFF3008059
:1017400000B583B00190FFF78BFE0198FFF7B0FE64
:10175000FFF78EFE03B05DF804FB00BFAFF300801F
:1017600000B583B00190FFF77BFE019800F008F808
:1017700003B05DF804FB00BFAFF30080AFF300805F
:1017800000B585B00190194B9B690393039B019AA7
:101790005A6208E0039B28331846FFF721FE0346F0
:1017A0001846FFF7FDFB039B28331846FFF7D8FDCB
:1017B0000346002BEED1039B93F8213003F0030383
:1017C000002B09D1039B5B69039A12691A61039B81
:1017D0001B69039A52695A610F20FFF721FC0448E4
:1017E000FFF74EF805B05DF804FB00BFC00A00200B
:1017F000B0470000AFF30080AFF30080AFF300808C
:1018000000B585B00190019B002B02D11848FFF76D
:1018100037F8FFF725FE174B9A69019B9A4202D1D0
:101820001348FFF72DF8019B93F82230002B02D1CB
:101830000F48FFF725F8019B93F820300F2B0AD0B3
:101840000C4B9A69019B283310461946FFF7B8FDE7
:101850000920FFF7E5FB019B5B6A0393FFF708FE96
:10186000019800F0C5F9039B184605B05DF804FB2C
:10187000C0470000C00A0020AFF30080AFF3008033
:1018800000B585B001900091019B1B68002B13D01F
:10189000019B1B680393039B93F82030032B02D01A
:1018A0000748FEF7EDFF019B00221A60039B009A98
:1018B0005A620398FFF774FB05B05DF804FB00BFA4
:1018C000D0470000AFF30080AFF30080AFF300809B
:1018D00000B583B001900091009B002B02D14FF026
:1018E000FF330AE0074B9B6918460199FFF788FD13
:1018F00004200099FFF714FC0346184603B05DF876
:1019000004FB00BFC00A0020AFF30080AFF30080EB
:1019100000B583B0019000910198FFF741FD0346A7
:10192000002B03D001980099FFF7DAFD03B05DF8B2
:1019300004FB00BFAFF30080AFF30080AFF3008083
:10194000014B5B6818467047001000E0AFF3008061
:1019500084B0039002910192039BDB685A1C039BA5
:10196000DA60039B9B68029AD21A019BD21A039BEE
:101970009A60039BD3E90401039B9B681A464FF0CE
:101980000003121843EB01030399C1E90423039BED
:101990009A68039B5B689A4204D9039B9A68039BED
:1019A0005A6009E0039B9A68039B1B689A4203D222
:1019B000039B9A68039B1A6004B07047AFF30080E2
:1019C00000B587B00B4B0022C3F8A0246B46184625
:1019D00000F016F86B46184600F02AF86B461846D9
:1019E00000F036F8029A034BC3F8A02407B05DF864
:1019F00004FB00BFC00A0020AFF30080AFF30080FB
:101A000082B00190019B4FF0FF321A60019B0022CF
:101A10005A60019B00229A60019B0022DA600199C2
:101A20004FF000024FF00003C1E9042302B07047F9
:101A300000B583B00190FFF783FF0246019B9A60D7
:101A400003B05DF804FB00BFAFF30080AFF300808C
:101A500000B583B00190FFF773FF0246054BD3F842
:101A6000A034019811461A46FFF772FF03B05DF8E3
:101A700004FB00BFC00A0020AFF30080AFF300807A
:101A800000B583B001900091FFF75AFF0246009B1A
:101A90009A60009B9B68019819460022FFF758FF47
:101AA00003B05DF804FB00BFAFF30080AFF300802C
:101AB00008B5074B0022C3F8A824054B0022C3F841
:101AC000AC240448FFF79CFF0348FFF799FF08BDCB
:101AD000C00A0020700F0020880F0020AFF30080A4
:101AE000034BD3F8A8345A1C014BC3F8A824704701
:101AF000C00A0020AFF30080AFF30080AFF3008096
:101B000000B583B001900091094BD3F8AC345A1C56
:101B1000074BC3F8AC24009B03F14802019B4833F8
:101B200010461946FFF7ACFF03B05DF804FB00BF99
:101B3000C00A0020AFF30080AFF30080AFF3008055
:101B400008B50248FFF774FF08BD00BF700F002002
:101B500008B50248FFF77CFF08BD00BF700F0020EA
:101B600008B50248FFF764FF08BD00BF880F0020DA
:101B700008B50248FFF76CFF08BD00BF880F0020C2
:101B800082B020230193019B83F3118802B0704738
:101B900082B000230193019B83F3118802B0704748
:101BA00008B5FFF7EDFFFFF7CBFFFEF7D1FE08BD4D
:101BB00008B5FEF7E5FEFFF7CBFF094B1A68084BA7
:101BC0009A420AD0064B9B699A68054B1B689B6832
:101BD0009A4202D20348FEF753FEFFF7D9FF08BD31
:101BE000C00A002000480000AFF30080AFF300807F
:101BF00000B585B00190FFF7D3FF019B93F8223029
:101C0000002B02D12348FEF73BFE019B93F82230C4
:101C1000013BDAB2019B83F82220019B93F822302A
:101C20008DF80F30FFF7C4FF9DF80F30002B2DD13A
:101C3000019B93F820300F2B28D1019B93F8213082
:101C400003F00303012B02D0022B0ED01EE0019BF8
:101C50005B69019A12691A61019B1B69019A5269B9
:101C60005A61019801F004F810E0019B5B69019A48
:101C700012691A61019B1B69019A52695A61019BA1
:101C80005B6C1846019901F0CBF800BF05B05DF818
:101C900004FB00BF10480000AFF30080AFF30080EA
:101CA00082B00190019B019A1A60019B019A5A60CF
:101CB00002B07047AFF30080AFF30080AFF3008055
:101CC00082B00190019B1A68019B9A4214BF0023C5
:101CD0000123DBB2184602B0704700BFAFF30080AB
:101CE00082B00190019B1A68019B9A420CBF0023AD
:101CF0000123DBB2184602B0704700BFAFF300808B
:101D000082B001900091019B009A1A60009B5A6872
:101D1000019B5A60019B5B68019A1A60009B019AC3
:101D20005A6002B0704700BFAFF30080AFF300808D
:101D300084B00190019B1B680393039B1A68019B6D
:101D40001A60019B1B68019A5A60039B184604B0F5
:101D5000704700BFAFF30080AFF30080AFF30080A7
:101D600000B583B001900091019B002B02D0009B35
:101D7000002B02DA0648FEF783FD019B1846FFF7A9
:101D80008FFF019B009A9A6003B05DF804FB00BFCF
:101D900040480000AFF30080AFF30080AFF3008055
:101DA00000B583B001900091FEF78AFE019B002BE5
:101DB00002D12648FEF764FD019B9B68002B09DBDE
:101DC000019B1846FFF77CFF034683F00103DBB25B
:101DD000002B10D0019B9B68002B09DA019B184651
:101DE000FFF77EFF034683F00103DBB2002B02D036
:101DF0001648FEF745FD019B9B685A1E019B9A60A1
:101E0000019B9B68002B1BDA009B002B07D1019BD9
:101E10009B685A1C019B9A604FF0FF3311E00C4BFA
:101E20009B69019A5A620A4B9A69019B10461946AE
:101E3000FFF766FF05200099FFF772F9034600E0FF
:101E40000023184603B05DF804FB00BF50480000B3
:101E5000C00A0020AFF30080AFF30080AFF3008032
:101E600000B585B00190FEF713FE019B002B02D157
:101E70001C48FEF705FD019B9B68002B09DB019BBD
:101E80001846FFF71DFF034683F00103DBB2002B6A
:101E900010D0019B9B68002B09DA019B1846FFF7C5
:101EA0001FFF034683F00103DBB2002B02D00D4875
:101EB000FEF7E6FC019B9B685A1C019B9A60019B04
:101EC0009B68002B0ADC019B1846FFF731FF03904B
:101ED000039B00225A620398FFF762F805B05DF891
:101EE00004FB00BF70480000AFF30080AFF3008038
:101EF00082B020230193019B83F3118802B07047C5
:101F000082B000230193019B83F3118802B07047D4
:101F100082B00190019B019A1A60019B019A5A605C
:101F200002B07047AFF30080AFF30080AFF30080E2
:101F300082B00190019B1A68019B9A420CBF00235A
:101F40000123DBB2184602B0704700BFAFF3008038
:101F500084B001900091009B0393039B1B68039343
:101F6000039A009B9A4205D0039B9A68019B9B6849
:101F70009A42F2D2019B039A1A60039B5A68019B12
:101F80005A60019B5B68019A1A60039B019A5A6030
:101F900004B07047AFF30080AFF30080AFF3008070
:101FA00084B00190019B1B680393039B1A68019BFB
:101FB0001A60019B1B68019A5A60039B184604B083
:101FC000704700BFAFF30080AFF30080AFF3008035
:101FD00082B00190019B5B68019A12681A60019BB4
:101FE0001B68019A52685A60019B184602B07047FC
:101FF00008B5FFF77DFFFFF7A3FDFEF7A9FC08BDBD
:1020000008B5FEF7BDFCFFF7A3FD094B1A68084BA6
:102010009A420AD0064B9B699A68054B1B689B68DD
:102020009A4202D20348FEF72BFCFFF769FF08BD76
:10203000C00A002090480000AFF30080AFF300809A
:1020400000B583B00190FEF73BFD019B1846FFF7FA
:102050006FFF0346184603B05DF804FBAFF3008042
:1020600000B583B00190019B002B02D10648FEF71A
:1020700007FC019B1846FFF74BFF019B00229A606B
:1020800003B05DF804FB00BF80480000AFF30080A0
:1020900000B583B00190FFF7ABFF019800F008F89E
:1020A000FFF7AEFF03B05DF804FB00BFAFF30080A5
:1020B00000B585B001903C4B9B690293FEF700FD93
:1020C000019B002B02D13948FEF7DAFB019B9B688C
:1020D000002B5BD0019B9B68039334E0029B9A68C2
:1020E000039B9A60039B93F82030062B04D0072BA8
:1020F00011D0002B1AD025E00398FFF769FF0246A4
:10210000039B5B6A10461946FFF722FF039B5B6A3D
:102110009B68039317E00398FFF75AFF0246039B5F
:102120005B6A10461946FFF713FF0BE0039B012281
:1021300083F820200398FFF74BFF03461846FEF76D
:102140002FFF00BF05E0039B9A68029B9B689A42A1
:10215000C4D3019B02981946FFF7FAFE029B019A2D
:102160005A620620FEF75CFF019B9A68029B9A4226
:1021700002D00E48FEF784FB029BDA6B019B9A4269
:1021800003D00A48FEF77CFB0AE009E0019B029AB3
:102190009A60029BDA6B019BDA60029B019ADA6318
:1021A00005B05DF804FB00BFC00A0020A048000095
:1021B00000B587B00190354B9B690393019B002BC1
:1021C00002D13348FEF75CFBFFF712FF039BDB6B8A
:1021D000002B02D12E48FEF753FB039BDB6B9A6862
:1021E000039B9A4202D02A48FEF74AFB039BDA6B14
:1021F000019B9A4202D02648FEF742FB019BDA6817
:10220000039BDA630198FFF71BFF0346002B34D0D2
:10221000039B1B6C0493039BDB6B059312E00598F7
:10222000FFF70EFF0346002B09D0059B1B689A6839
:10223000049B9A4203D9059B1B689B680493059BEA
:10224000DB680593059B002BE9D1039B049A9A60F8
:10225000019B1846FFF7A4FE0290019B029A9A6028
:10226000029BDA6B019BDA60029B019ADA630298A7
:10227000FEF796FEFEF7D4FF02E0019B00229A6073
:10228000FFF7BEFE07B05DF804FB00BFC00A0020E8
:10229000B0480000AFF30080AFF30080AFF30080E0
:1022A00000B585B001900091FEF7F2FB019B002B79
:1022B00002D11448FEF7E4FA019B1B6803931AE06D
:1022C000039BDA68009B1A43039BDA60009B002B98
:1022D00006D0039BDA68039B1B691340002B07D0D1
:1022E000039B5A68039B9B681046194600F010F840
:1022F000039B1B680393039A019B9A42E0D105B0AC
:102300005DF804FBC0480000AFF30080AFF300802D
:1023100000B583B001900091FEF7BAFB019B002B42
:1023200002D11648FEF7ACFA019B9A6B009B1A4348
:10233000019B9A63019B93F820300A2B06D1019BE5
:102340009A6B019B5B6A1340002B0DD1019B93F8A4
:1023500020300B2B0ED1019B9A6B019B5B6A1A40BC
:10236000019B5B6A9A4205D1019B00225A62019847
:10237000FEF716FE03B05DF804FB00BFE048000066
:1023800082B020230193019B83F3118802B0704730
:1023900082B000230193019B83F3118802B0704740
:1023A00008B5FFF7EDFFFFF7CBFBFEF7D1FA08BD4D
:1023B00008B5FEF7E5FAFFF7CBFB094B1A68084BA7
:1023C0009A420AD0064B9B699A68054B1B689B682A
:1023D0009A4202D20348FEF753FAFFF7D9FF08BD2D
:1023E000C00A002000490000AFF30080AFF3008076
:1023F00000B585B0039002910192039B002B05D09C
:10240000029B002B02D0019B002B02DC1048FEF740
:1024100037FA039B029A1A60039B029ADA60039BC5
:10242000029A9A60019B9B00029A1A44039B5A608D
:10243000039B1C3318460199FFF792FC039B103352
:1024400018460021FFF78CFC05B05DF804FB00BFC7
:10245000F0480000AFF30080AFF30080AFF30080DE
:1024600000B587B0039002910192FFF799FF03989E
:102470000299019A00F00CF80590FFF799FF059B6F
:10248000184607B05DF804FBAFF30080AFF300809F
:1024900000B587B0039002910192FEF711FB039BF8
:1024A000002B02D11448FEF7EBF9039B1C331846AE
:1024B0000199FFF775FC0590059B002B17D1039B35
:1024C0009B68191D039A9160029A1A60039B9A688F
:1024D000039B5B689A4203D3039B1A68039B9A6031
:1024E000039B10331846FFF7BBFCFEF799FE059BD4
:1024F000184607B05DF804FB10490000AFF30080F8
:1025000000B587B0039002910192FFF749FF03984D
:102510000299019A00F00CF80590FFF749FF059B1E
:10252000184607B05DF804FBAFF30080AFF30080FE
:1025300000B587B0039002910192FEF7C1FA039BA8
:10254000002B02D0029B002B02D11548FEF798F910
:10255000039B103318460199FFF722FC0590059B59
:10256000002B18D1039BDB68191D039AD1601A68F0
:10257000029B1A60039BDA68039B5B689A4203D351
:10258000039B1A68039BDA60039B1C331846FFF712
:1025900067FCFEF745FE059B184607B05DF804FB97
:1025A00020490000AFF30080AFF30080AFF300805C
:1025B00082B020230193019B83F3118802B07047FE
:1025C00082B000230193019B83F3118802B070470E
:1025D00082B00190019B019A1A60019B019A5A6096
:1025E00002B07047AFF30080AFF30080AFF300801C
:1025F00008B5FFF7DDFFFFF7A3FAFEF7A9F908BD5D
:1026000008B5FEF7BDF9FFF7A3FA094B1A68084BA6
:102610009A420AD0064B9B699A68054B1B689B68D7
:102620009A4202D20348FEF72BF9FFF7C9FF08BD13
:10263000C00A002030490000AFF30080AFF30080F3
:1026400000B583B001900198FFF7C2FF03B05DF8B9
:1026500004FB00BFAFF30080AFF30080AFF3008056
:1026600000B583B00190FEF713FA019B9B68002B25
:1026700014BF00230123DBB2184603B05DF804FB4E
:1026800000B583B00190FEF703FA019B5A69019BE4
:102690009B699A4205D1019B9B68002B01D00123C5
:1026A00000E0002303F00103DBB2184603B05DF83D
:1026B00004FB00BFAFF30080AFF30080AFF30080F6
:1026C00000B583B00190FEF7E3F9019B5A69019BC5
:1026D0009B699A4205D1019B9B68002B01D0012385
:1026E00000E0002303F00103DBB2184603B05DF8FD
:1026F00004FB00BFAFF30080AFF30080AFF30080B6
:1027000000B583B00190FEF7C3F9019B9B68002BD5
:1027100014BF00230123DBB2184603B05DF804FBAD
:1027200000B585B00390029101920093039B184677
:10273000FFF786FF039B00229A60039B029ADA60F0
:10274000039B029A9A61039B029A5A61029A019B27
:102750001A44039B1A61039B009ADA61039B069A51
:102760001A6205B05DF804FBAFF30080AFF30080A0
:1027700000B583B001900B468DF80330FEF788F961
:102780000198FFF77DFF0346002B02D06FF0030393
:102790001CE0019B9B685A1C019B9A60019B5B6932
:1027A000591C019A51619DF803201A70019B5A69C6
:1027B000019B1B699A4203D3019BDA68019B5A6112
:1027C000019B18460021FFF7A3F80023184603B029
:1027D0005DF804FBAFF30080AFF30080AFF300803F
:1027E00000B585B001900091FFF702FF019BDB6906
:1027F000002B04D0019BDB69019898470DE00CE0A9
:10280000019B18460099FFF763F80390039B002B88
:1028100003DAFFF7F5FE039B20E00198FFF720FFA6
:102820000346002BECD1019B9B685A1E019B9A60CA
:10283000019B9B69591C019A91611B788DF80B30A3
:10284000019B9A69019B1B699A4203D3019BDA6839
:10285000019B9A61FFF7D4FE9DF80B30184605B036
:102860005DF804FBAFF30080AFF30080AFF30080AE
:1028700000B587B00390029101920093039BDB693E
:10288000049300230593019B002B02D12548FDF7FB
:10289000F7FFFFF7ADFE049B002B03D0049B0398CA
:1028A00098470CE00BE0039B18460099FFF710F8DF
:1028B0000346002B03D0FFF7A3FE059B2EE00398F1
:1028C000FFF7CEFE0346002BEDD1039B9B685A1EFB
:1028D000039B9A60029B5A1C0292039A9269501CB5
:1028E0000399886112781A70039B9A69039B1B698C
:1028F0009A4203D3039BDA68039B9A61FFF780FE39
:10290000059B01330593019B013B0193019B002B28
:1029100001D1059B02E0FFF76BFEBCE7184607B04C
:102920005DF804FB40490000AFF30080AFF3008086
:1029300000B585B00390029101920093039B184665
:10294000FFF77EFE039B019A9A60039B029ADA606E
:10295000039B029A9A61039B029A5A61029A019B15
:102960001A44039B1A61039B009ADA61039B069A3F
:102970001A6205B05DF804FBAFF30080AFF300808E
:1029800000B587B003900B4601928DF80B30FFF72E
:102990002FFE0CE0039B18460199FEF799FF059066
:1029A000059B002B03DAFFF72BFE059B27E003981E
:1029B000FFF7A6FE0346002BECD1039B9B685A1E33
:1029C000039B9A60039B5B69591C039A51619DF8B4
:1029D0000B201A70039B5A69039B1B699A4203D30D
:1029E000039BDA68039B5A61039BDB69002B03D0CE
:1029F000039BDB6903989847FFF702FE0023184604
:102A000007B05DF804FB00BFAFF30080AFF30080B8
:102A100000B585B00190FEF73BF80198FFF750FE36
:102A20000346002B02D06FF002031DE0019B9B6860
:102A30005A1C019B9A60019B9B69591C019A9161E8
:102A40001B788DF80F30019B9A69019B1B699A4294
:102A500003D3019BDA68019B9A61019B1846002110
:102A6000FEF756FF9DF80F30184605B05DF804FBE1
:102A700000B587B00390029101920093039BDB693C
:102A8000049300230593019B002B02D12548FDF7F9
:102A9000F7FEFFF7ADFD0BE0039B18460099FEF72C
:102AA00017FF0346002B03D0FFF7AAFD059B35E077
:102AB0000398FFF725FE0346002BEDD1039B9B688F
:102AC0005A1E039B9A60039B5B69591C039A5161D0
:102AD000029A511C029112781A70039B5A69039B47
:102AE0001B699A4203D3039BDA68039B5A61049BD8
:102AF000002B02D0049B03989847FFF781FD059BAC
:102B000001330593019B013B0193019B002B01D1F4
:102B1000059B03E0FFF76CFD00BFC9E7184607B04F
:102B20005DF804FB50490000AFF30080AFF3008074
:102B300082B020230193019B83F3118802B0704778
:102B400082B000230193019B83F3118802B0704788
:102B500008B5FFF7EDFFFEF7F3FFFDF7F9FE08BD3F
:102B600008B5FDF70DFFFEF7F3FF094B1A68084B98
:102B70009A420AD0064B9B699A68054B1B689B6872
:102B80009A4202D20348FDF77BFEFFF7D9FF08BD4A
:102B9000C00A002070490000AFF30080AFF300804E
:102BA000064B073323F007031A46054B1A60054B03
:102BB00023F007031A46044B1A607047781200206E
:102BC00098100020000002209C100020AFF300802D
:102BD00000B585B00190FFF7BBFF019800F008F841
:102BE0000390FFF7BDFF039B184605B05DF804FB9B
:102BF00000B585B00190FDF74BFF019B073323F033
:102C0000070301930C4B1B681A460C4B1B68D31A25
:102C10001A46019B9A4201D2002309E0074B1B6828
:102C20000393064B1A68019B1A44044B1A60039BDA
:102C3000184605B05DF804FB9C1000209810002099
:102C400008B5064B064A1A60044B00229A60034BF3
:102C50000022DA600348FFF703FA08BDA010002045
:102C6000D12B0000B0100020AFF30080AFF3008044
:102C700000B587B00190019B002B02D13A48FDF7C7
:102C8000FFFD019B083B0493049B1B680393039B7C
:102C900008330593039B10331846FFF7F9F9049A9C
:102CA000059B9A420AD3059B5B680833059A1A4430
:102CB000049B9A4202D92C48FDF7E2FD039B03F1E5
:102CC0000802059B9A4203D0049A059B9A423ED97A
:102CD000059B1B68002B04D0059B1A68049B9A4235
:102CE00035D9059B1A68049B1A60059B049A1A60E3
:102CF000049B5B680833049A1A44049B1B689A423D
:102D00000ED1049B5A68049B1B685B68134403F153
:102D10000802049B5A60049B1B681A68049B1A6093
:102D2000059B5B680833059A1A44049B9A420DD1AF
:102D3000059B5A68049B5B68134403F10802059BDA
:102D40005A60049B1A68059B1A6004E003E0059B27
:102D50001B680593A3E7039B10331846FFF728FA77
:102D600000BF07B05DF804FB80490000AFF30080AE
:102D700082B020230193019B83F3118802B0704736
:102D800082B000230193019B83F3118802B0704746
:102D900008B5FFF7EDFFFEF7D3FEFDF7D9FD08BD3F
:102DA00008B5FDF7EDFDFEF7D3FE094B1A68084B99
:102DB0009A420AD0064B9B699A68054B1B689B6830
:102DC0009A4202D20348FDF75BFDFFF7D9FF08BD29
:102DD000C00A002090490000AFF30080AFF30080EC
:102DE00000B585B001900091009B0393FDF750FE64
:102DF000019B002B02D0009B002B02D10648FDF75F
:102E00003FFD019B1A68039B1A60019B039A1A609D
:102E100005B05DF804FB00BFA0490000AFF30080DF
:102E200000B583B001900091FFF7B2FF01980099BF
:102E3000FFF7D6FFFFF7B4FF03B05DF804FB00BF58
:102E400082B020230193019B83F3118802B0704765
:102E500082B000230193019B83F3118802B0704775
:102E600008B5FFF7EDFF08BDAFF30080AFF30080BA
:102E700008B5FFF7EDFF08BDAFF30080AFF30080AA
:102E800010B582B0EFF309831C4623460193019BE2
:102E900020330193019B0093009B83F30988FFF784
:102EA000E7FF02B010BD00BFAFF30080AFF30080BA
:102EB00010B582B0FFF7D4FF134B5B6803F40063D7
:102EC000002B1DD0EFF309831C4623460193019B81
:102ED000203B0193019B4FF08072DA61019B0093CC
:102EE000009B83F30988FEF7ABF90346002B03D060
:102EF000019B064A9A6105E0019B054A9A6101E03F
:102F0000FFF7B6FF02B010BD00ED00E0A90200001F
:102F1000BC020000AFF30080AFF30080AFF300808D
:102F2000704700BFAFF30080AFF30080AFF30080C5
:102F300008B5FFF7F5FF00F0CBFA064801F0A8F856
:102F400000F08EF800F0E4F901F0A2FB00F038F890
:102F500008BD00BFF04A0000AFF30080AFF300806F
:102F600082B001904FF08043019A5A634FF0804342
:102F700000221A614FF080430222DA6002B07047EB
:102F80004FF080430022DA60704700BFAFF300804B
:102F900082B001904FF08043019A5A6302B07047AB
:102FA0004FF08043DB6803F00203002B0CBF0023CB
:102FB0000123DBB218467047AFF30080AFF3008007
:102FC00008B500F06DFE08BDAFF30080AFF30080E0
:102FD00000B583B00190FFF7E3FF0346002B02D05A
:102FE0000448FDF74DFC0198FFF7BAFF03B05DF808
:102FF00004FB00BFB0490000AFF30080AFF30080D6
:1030000008B5FFF7BDFF08BDAFF30080AFF3008048
:1030100000B583B00190FFF7C3FF034683F00103BF
:10302000DBB2002B02D00448FDF72AFC0198FFF721
:10303000AFFF03B05DF804FBC0490000AFF30080B0
:1030400000B583B001900198FFF70AF803B05DF86E
:1030500004FB00BFAFF30080AFF30080AFF300804C
:1030600008B500F075FF08BDAFF30080AFF3008036
:1030700000B583B00190019B01221A70019B0022D0
:103080005A60019B00229A60019B0022DA60019B3A
:1030900000221A61019B00225A61019B18331846D5
:1030A000FFF7CEFF03B05DF804FB00BFAFF3008075
:1030B00082B020230193019B83F3118802B07047F3
:1030C00082B000230193019B83F3118802B0704703
:1030D00008B5FFF7EDFFFEF733FDFDF739FC08BD3E
:1030E00008B5FDF74DFCFEF733FD094B1A68084B98
:1030F0009A420AD0064B9B699A68054B1B689B68ED
:103100009A4202D20348FDF7BBFBFFF7D9FF08BD87
:10311000C00A0020004A0000AFF30080AFF3008037
:1031200082B00190019B019A1A6002B0704700BF03
:1031300000B583B00190FDF7ABFC019B9B68002BB1
:1031400014BF00230123DBB2184603B05DF804FB73
:1031500008B5FFF7BDFF08BDAFF30080AFF30080F7
:1031600008B5FFF7BDFF08BDAFF30080AFF30080E7
:1031700000B583B001900198FFF7D2FF03B05DF86E
:1031800004FB00BFAFF30080AFF30080AFF300801B
:1031900000B583B00190009101980099FFF780F885
:1031A00003B05DF804FB00BFAFF30080AFF3008015
:1031B00000B585B0039002910192039B303318460D
:1031C0000299019A4FF0FF33FFF752FC034618466D
:1031D00005B05DF804FB00BFAFF30080AFF30080E3
:1031E00000B585B0039002910192039B0C33184601
:1031F0000299019A4FF0FF33FFF73AFB0346184656
:1032000005B05DF804FB00BFAFF30080AFF30080B2
:1032100000B583B001900B468DF80330019B03F19C
:1032200030029DF80330104619464FF0FF32FFF789
:10323000A7FB0346184603B05DF804FBAFF300801C
:1032400000B583B00190019B0C3318464FF0FF315D
:10325000FFF7C6FA0346184603B05DF804FB00BF4B
:1032600000B585B003900B4601928DF80B30039B9F
:1032700003F130029DF80B3010461946019AFFF712
:103280007FFB0346184605B05DF804FBAFF30080F2
:1032900000B583B001900091019B0C331846009952
:1032A000FFF79EFA0346184603B05DF804FB00BF23
:1032B00000B585B00390029101920093039B3033D7
:1032C00018460299019A009BFFF7D2FB0346184665
:1032D00005B05DF804FB00BFAFF30080AFF30080E2
:1032E00000B585B00390029101920093039B0C33CB
:1032F00018460299019A009BFFF7BAFA034618464E
:1033000005B05DF804FB00BFAFF30080AFF30080B1
:1033100008B501F075F908BDAFF30080AFF3008088
:1033200000B587B0059004910392059B134A1A607B
:10333000059B04331846FFF71BFF059B01221A72F9
:10334000059B03F10C02059B54330599009110462F
:1033500019462022049BFFF7E3F9059B03F1300295
:10336000059B743305990091104619462022039B52
:10337000FFF7DEFA07B05DF804FB00BFD04900009C
:1033800000B583B001900091019B002B02D10E4843
:10339000FDF776FAFFF7DCFE019B1B7A012B06D0C6
:1033A000019B1B7A022B02D00748FDF769FA0198AE
:1033B000009901F03DF9019B02221A72FFF7D0FE3D
:1033C00003B05DF804FB00BFF0490000AFF30080DC
:1033D00000B583B001900B468DF80330FDF758FB24
:1033E000019B002B02D11348FDF74AFA019B0C33D5
:1033F0001846FFF79DFE0346002B05D0019B0433C2
:1034000018460421FFF7C4FE019B03F10C029DF84E
:10341000033010461946FFF7ABF90346002B05DAD7
:10342000019B043318468021FFF7B2FE03B05DF81C
:1034300004FB00BF104A0000AFF30080AFF3008030
:1034400082B0019000911149009BDBB21B01DAB2FE
:10345000019B0B4403F540731A700C4B019A5209FF
:10346000019901F01F01012000FA01F1603243F8D7
:103470002210064B019A5209019901F01F01012007
:1034800000FA01F143F8221002B0704700E100E0B9
:103490000D4B0D4A126842F480721A600B4B1B6F81
:1034A00003F44073B3F5007F06D0084B4FF480322D
:1034B0001A67064B00221A67034B034A526822F42C
:1034C00000725A60704700BF007000400038024030
:1034D00008B5174B1B69164B4FF0FF321A61144B9E
:1034E00000221A61124B5B69114B4FF0FF325A6197
:1034F0000F4B00225A610E4B0D4A126A62F0805245
:103500001A620B4B00221A62094B5B6A084B4FF0A0
:10351000FF325A62064B00225A62054B044A126C73
:1035200042F080521A64FFF7B3FF00F019FB08BDA8
:1035300000380240AFF30080AFF30080AFF30080AB
:10354000404B4FF080521A643F4B4FF440421A6098
:103550003C4B3C4A126842F001021A6000BF394BF2
:103560001B6803F00203002BF9D0364B354A9268F2
:1035700022F003029A60334B324A92689A6000BF8D
:10358000304B9B6803F00C03002BF9D12D4B2D4AD7
:10359000126802F0F9021A602A4B00229A60294B45
:1035A000284A126842F480321A6000BF254B1B681B
:1035B00003F40033002BF9D0224B224A526F42F021
:1035C00001025A6700BF1F4B5B6F03F00203002B21
:1035D000F9D01C4B1D4A5A601A4B1A4A126842F025
:1035E00080721A6000BF184B5B6803F48043002BA5
:1035F000F9D000BF134B1B6803F00073002BF9D008
:10360000104B134A9A60134B40F205721A600D4B2F
:103610000C4A926842F002029A6000BF094B9B6814
:1036200003F00C03082BF9D1064B064A526C42F406
:1036300080425A64034B034A526E42F480425A66F7
:10364000704700BF00380240007000400854400737
:1036500000940838003C0240AFF30080AFF30080D4
:1036600000B583B0FEF73CFAFDF7D2F90C4B1B68AE
:1036700003F03D0301930A4B019A9A60094B1B68C2
:10368000002B06D0074B1B68064A5268104601996A
:103690009847FDF7DDF9FFF70BFC03B05DF804FB7D
:1036A00000600240C4100020AFF30080AFF3008040
:1036B00000B583B0FEF714FAFDF7AAF90D4B1B68AD
:1036C0009B0903F03D0301930A4B019A92019A6012
:1036D000094B9B68002B06D0074B9B68064AD268B3
:1036E000104601999847FDF7B3F9FFF7E1FB03B0E6
:1036F0005DF804FB00600240C4100020AFF30080BE
:1037000000B583B0FEF7ECF9FDF782F90D4B1B68AD
:103710001B0C03F03D0301930A4B019A12049A60BB
:10372000094B1B69002B06D0074B1B69064A5269DF
:10373000104601999847FDF78BF9FFF7B9FB03B0E5
:103740005DF804FB00600240C4100020AFF300806D
:1037500000B583B0FEF7C4F9FDF75AF90D4B1B68AD
:103760009B0D03F03D0301930A4B019A92059A6069
:10377000094B9B69002B06D0074B9B69064AD2690F
:10378000104601999847FDF763F9FFF791FB03B0E5
:103790005DF804FB00600240C4100020AFF300801D
:1037A00000B583B0FEF79CF9FDF732F90C4B5B686E
:1037B00003F03D0301930A4B019ADA60094B1B6A3F
:1037C000002B06D0074B1B6A064A526A1046019925
:1037D0009847FDF73DF9FFF76BFB03B05DF804FB7D
:1037E00000600240C4100020AFF30080AFF30080FF
:1037F00000B583B0FEF774F9FDF70AF90D4B5B686D
:103800009B0903F03D0301930A4B019A9201DA6090
:10381000094B9B6A002B06D0074B9B6A064AD26A6B
:10382000104601999847FDF713F9FFF741FB03B0E4
:103830005DF804FB00600240C4100020AFF300807C
:1038400000B583B0FEF74CF9FDF7E2F80D4B5B686D
:103850001B0C03F03D0301930A4B019A1204DA603A
:10386000094B1B6B002B06D0074B1B6B064A526B98
:10387000104601999847FDF7EBF8FFF719FB03B0E5
:103880005DF804FB00600240C4100020AFF300802C
:1038900000B583B0FEF724F9FDF7BAF80D4B5B686D
:1038A0009B0D03F03D0301930A4B019A9205DA60E8
:1038B000094B9B6B002B06D0074B9B6B064AD26BC8
:1038C000104601999847FDF7C3F8FFF7F1FA03B0E6
:1038D0005DF804FB00600240C4100020AFF30080DC
:1038E00000B583B0FEF7FCF8FDF792F80C4B1B68AF
:1038F00003F03D0301930A4B019A9A60094B1B6C3C
:10390000002B06D0074B1B6C064A526C10460199DF
:103910009847FDF79DF8FFF7CBFA03B05DF804FB7D
:1039200000640240C4100020AFF30080AFF30080B9
:1039300000B583B0FEF7D4F8FDF76AF80D4B1B68AD
:103940009B0903F03D0301930A4B019A92019A608F
:10395000094B9B6C002B06D0074B9B6C064AD26C24
:10396000104601999847FDF773F8FFF7A1FA03B0E5
:103970005DF804FB00640240C4100020AFF3008037
:1039800000B583B0FEF7ACF8FDF742F80D4B1B68AD
:103990001B0C03F03D0301930A4B019A12049A6039
:1039A000094B1B6D002B06D0074B1B6D064A526D51
:1039B000104601999847FDF74BF8FFF779FA03B0E5
:1039C0005DF804FB00640240C4100020AFF30080E7
:1039D00000B583B0FEF784F8FDF71AF80D4B1B68AD
:1039E0009B0D03F03D0301930A4B019A92059A60E7
:1039F000094B9B6D002B06D0074B9B6D064AD26D81
:103A0000104601999847FDF723F8FFF751FA03B0E4
:103A10005DF804FB00640240C4100020AFF3008096
:103A200000B583B0FEF75CF8FCF7F2FF0C4B5B6867
:103A300003F03D0301930A4B019ADA60094B1B6EB8
:103A4000002B06D0074B1B6E064A526E104601999A
:103A50009847FCF7FDFFFFF72BFA03B05DF804FB76
:103A600000640240C4100020AFF30080AFF3008078
:103A700000B583B0FEF734F8FCF7CAFF0D4B5B6866
:103A80009B0903F03D0301930A4B019A9201DA600E
:103A9000094B9B6E002B06D0074B9B6E064AD26EDD
:103AA000104601999847FCF7D3FFFFF701FA03B0DE
:103AB0005DF804FB00640240C4100020AFF30080F6
:103AC00000B583B0FEF70CF8FCF7A2FF0D4B5B6866
:103AD0001B0C03F03D0301930A4B019A1204DA60B8
:103AE000094B1B6F002B06D0074B1B6F064A526F0A
:103AF000104601999847FCF7ABFFFFF7D9F903B0DF
:103B00005DF804FB00640240C4100020AFF30080A5
:103B100000B583B0FDF7E4FFFCF77AFF0D4B5B685F
:103B20009B0D03F03D0301930A4B019A9205DA6065
:103B3000094B9B6F002B06D0074B9B6F064AD26F39
:103B4000104601999847FCF783FFFFF7B1F903B0DE
:103B50005DF804FB00640240C4100020AFF3008055
:103B600082B0164B00221A600023019311E0144921
:103B7000019A13465B0013449B000B441B68002210
:103B80001A60104B019A002143F83210019B013357
:103B90000193019B0F2BEAD90B4B4FF0FF329A6038
:103BA000094B4FF0FF32DA60084B4FF0FF329A605A
:103BB000064B4FF0FF32DA6002B07047C0100020B1
:103BC000204A0000C410002000600240006402404F
:103BD00082B020230193019B83F3118802B07047C8
:103BE00082B000230193019B83F3118802B07047D8
:103BF00008B5FFF7EDFF08BDAFF30080AFF300801D
:103C000008B5FFF7EDFF08BDAFF30080AFF300800C
:103C100008B5FFF7EDFFFDF7A3FFFCF7C9FE08BDF0
:103C200008B5FCF7DDFEFDF7A3FFFFF7E9FF08BDD0
:103C300008B5FFF7EDFF08BDAFF30080AFF30080DC
:103C400008B5FFF7EDFF08BDAFF30080AFF30080CC
:103C500008B5FCF725FE08BDAFF30080AFF3008088
:103C600008B5FDF73DFFFCF7D3FE4FF080431B691D
:103C700003F00203002B09D04FF0804300221A61A9
:103C8000FFF7D6FFFFF7E4FFFFF7DAFFFCF7E0FEF0
:103C9000FFF70EF908BD00BFAFF30080AFF300805F
:103CA00008B5194B184A126C42F001021A64174BFE
:103CB000164A926842F001029A604FF0804342F245
:103CC000CF029A624FF080434FF0FF32DA624FF03A
:103CD000804300229A614FF0804300225A634FF0E4
:103CE00080430022DA604FF0804300225A604FF098
:103CF000804301225A614FF0804301221A601C2048
:103D00000821FFF79DFB08BD00380240002004E0B9
:103D100082B020230193019B83F3118802B0704786
:103D200082B000230193019B83F3118802B0704796
:103D300008B5FFF7EDFF08BDAFF30080AFF30080DB
:103D400008B5FFF7EDFF08BDAFF30080AFF30080CB
:103D500008B5FFF7EDFFFDF703FFFCF729FE08BDEF
:103D600008B5FCF73DFEFDF703FFFFF7E9FF08BDCF
:103D700008B5FFF7EDFF08BDAFF30080AFF300809B
:103D800008B5FFF7EDFF08BDAFF30080AFF300808B
:103D900000B583B00190009101980099FDF770FD86
:103DA00003B05DF804FB00BFAFF30080AFF3008009
:103DB00000B583B0FDF794FEFCF72AFE584B1B6854
:103DC0000193574B00221A60019B03F02003002B44
:103DD0002DD0544BDB6A1B685B68002B27D0514BFE
:103DE0001B69002B23D04F4800F0FAF84D4B1B699C
:103DF0009B68002B0FD04B4B05221A70494B1B6957
:103E00009B68484801219847464B1B78052B02D1F7
:103E1000444B02221A70434B00221A61FFF7A8FF9D
:103E200041484FF0FF31FFF7B3FFFFF7A9FF3F4BCA
:103E30001B6801933D4B00221A60019B03F0200395
:103E4000002B2DD03A4BDB6A1B685B68002B27D018
:103E5000374B1B69002B23D0354800F0C1F8344B99
:103E60001B699B68002B0FD0314B05221A70304B19
:103E70001B699B682E48012198472D4B1B78052B09
:103E800002D12B4B02221A70294B00221A61FFF734
:103E90006FFF28484FF0FF31FFF77AFFFFF770FF01
:103EA000254B1B680193244B00221A60019B03F0F1
:103EB0002003002B2DD0214BDB6A1B685B68002B95
:103EC00027D01E4B1B69002B23D01C4800F088F81C
:103ED0001A4B1B699B68002B0FD0184B05221A70D8
:103EE000164B1B699B68154801219847134B1B789B
:103EF000052B02D1114B02221A70104B00221A61BD
:103F0000FFF736FF0E484FF0FF31FFF741FFFFF795
:103F100037FFFCF79DFDFEF7CBFF03B05DF804FB18
:103F200000200140441100205811002000210140D0
:103F3000781100208C11002000220140AC110020DB
:103F4000C0110020AFF30080AFF30080AFF300801A
:103F500008B51448FFF78CF8124B134A9A62114BBC
:103F6000124ADA620F4B124A1A631248FFF780F8BE
:103F7000104B114A9A620F4B104ADA620D4B104AED
:103F80001A631048FFF774F80E4B0F4A9A620D4BF4
:103F90000E4ADA620B4B0E4A1A6312200621FFF713
:103FA0004FFA08BD4411002000200140B04A000033
:103FB000162C02007811002000210140984A0000D0
:103FC000162C0202AC110020002201408C4A000095
:103FD000162C0204AFF30080AFF30080AFF3008033
:103FE00082B00190019BDB6A1B68019AD26A126859
:103FF000126822F01F021A6000BF019BDB6A1B6877
:104000001B6803F00103002BF7D1019BDB6A5B689F
:10401000019AD26A127A3D2101FA02F21A60019BDA
:104020009B6A00225A60019B9B6A00229A60019B56
:104030009B6A01229A6002B0704700BFAFF3008014
:1040400082B001900091009B5A68019B5A60009BCE
:104050009A68019B9A60009BDA68019BDA60009B7A
:104060001A69019B5A61009B5A69019B1A62009B65
:104070009A69019B5A62009B1A68019B1A6002B000
:10408000704700BFAFF30080AFF30080AFF3008054
:1040900000B583B00190244A234B1B6B6FEA532376
:1040A0006FEA43231363204A1F4B1B6D6FEA5323B0
:1040B0006FEA43231365019B1C481946FFF7C0FFB5
:1040C000019B1C331A481946FFF7BAFF019B38338E
:1040D00018481946FFF7B4FF019B54331648194698
:1040E000FFF7AEFF019B703314481946FFF7A8FF96
:1040F000019B8C3312481946FFF7A2FF019BA8339E
:1041000010481946FFF79CFF019BC4330E4819461F
:10411000FFF796FF019BE0330C481946FFF790FF2D
:1041200003B05DF804FB00BF00380240000002400D
:104130000004024000080240000C0240001002404F
:104140000014024000180240001C024000200240FF
:104150008EB0039002910192019B03F003030D9333
:10416000019B03F004039B080C93019B03F01803CD
:10417000DB080B93019B03F060035B090A93019B2F
:1041800003F4F063DB09089300230993029B03F017
:104190000103002B54D0099B03F007039B00089AEE
:1041A00002FA03F30793099B03F007039B000F2216
:1041B00002FA03F30693099B072B09D8039B1A6A9B
:1041C000069BDB431A40079B1A43039B1A6208E0D5
:1041D000039B5A6A069BDB431A40079B1A43039BC7
:1041E0005A62099B012202FA03F30593039B5A6862
:1041F000059BDB431A400C9B1A43039B5A60099BA7
:104200005B00032202FA03F30493039B9A68049B66
:10421000DB431A400B9B1A43039B9A60039BDA68AB
:10422000049BDB431A400A9B1A43039BDA60039BFF
:104230001A68049BDB431A400D9B1A43039B1A60C8
:10424000029B5B080293029B002B00D10FE00C9BAA
:104250005B000C930B9B9B000B930A9B9B000A93A8
:104260000D9B9B000D93099B013309938EE70EB0C4
:10427000704700BFAFF30080AFF30080AFF3008062
:1042800082B020230193019B83F3118802B0704711
:1042900082B000230193019B83F3118802B0704721
:1042A00008B5FFF7EDFF08BDAFF30080AFF3008066
:1042B00008B5FFF7EDFF08BDAFF30080AFF3008056
:1042C00008B5FFF7EDFFFDF74BFCFCF771FB08BDF0
:1042D00008B5FCF785FBFDF74BFCFFF7E9FF08BDD0
:1042E00000B583B00190FCF7D3FB019B5A69019B99
:1042F0009B699A4205D1019B9B68002B01D0012349
:1043000000E0002303F00103DBB2184603B05DF8C0
:1043100004FB00BFAFF30080AFF30080AFF3008079
:1043200008B5FFF7CDFF08BDAFF30080AFF3008005
:1043300008B5FFF7CDFF08BDAFF30080AFF30080F5
:1043400000B583B00190009101980099FDF7A8FF96
:1043500003B05DF804FB00BFAFF30080AFF3008053
:1043600084B001900091019BD3F894300393019B9A
:10437000D3F894201D4B9A4205D0019BD3F894208A
:104380001B4B9A4207D1009B1B681A4AB2FBF3F2FF
:10439000039B9A6006E0009B1B68174AB2FBF3F28E
:1043A000039B9A60009BDB8843F040039BB21A4654
:1043B000039B1A61009B1B8943F001039BB21A46C1
:1043C000039B5A61009B9B8843F4045343F02C03E6
:1043D0009BB21A46039BDA60039B00221A60039B80
:1043E0001B68039B5B6804B0704700BF001001406E
:1043F0000014014000BD010580DE8002AFF30080A3
:1044000000B585B001900B46ADF802300023039350
:10441000BDF8023003F00803002B03D0039B43F0E8
:1044200080030393BDF8023003F00103002B03D097
:10443000039B43F020030393BDF8023003F0020313
:10444000002B03D0039B43F040030393BDF80230DD
:1044500003F00403002B03D0039B43F48073039306
:10446000019B043318460399FFF76AFF05B05DF816
:1044700004FB00BFAFF30080AFF30080AFF3008018
:1044800000B587B00190019BD3F894300493049B4E
:10449000DB68ADF80E30049B1B68ADF81630BDF834
:1044A000163003F48073002B0ED0FFF739FF019B09
:1044B000043318464FF40071FFF742FF049B6FF47A
:1044C00080721A60FFF734FFFFF72AFF1FE0BDF884
:1044D000163003F00F03002B05D0BDF816300198FD
:1044E0001946FFF78DFF049B5B688DF80D30BDF812
:1044F000163003F02003002B05D09DF80D300198F5
:104500001946FEF765FF049B1B68ADF81630BDF831
:10451000163003F02F03002BD9D1FFF709FFBDF8A8
:104520000E3003F08003002B24D0BDF8163003F0CA
:104530008003002B1ED0FFF7F3FE019B303318469B
:10454000FEF766FA0290029B002B0EDA019B043301
:1045500018460821FFF7F4FEBDF80E3023F0C00323
:1045600043F04002049BDA6002E0029A049B5A6026
:10457000FFF7DEFEBDF8163003F04003002B1BD022
:10458000FFF7CEFE019B30331846FFF7A9FE034626
:10459000002B05D0019B043318461021FFF7D0FEF5
:1045A000BDF80E3023F04002049BDA60049B6FF0EC
:1045B00040021A60FFF7BCFE07B05DF804FB00BFC5
:1045C00082B00190034B034AD26842F08002DA6065
:1045D00002B0704700100140AFF30080AFF30080DD
:1045E00008B5FDF77DFAFCF713FA0448FFF748FF1A
:1045F000FCF72EFAFEF75CFC08BD00BFE0110020BE
:1046000008B505480021054AFEF78AFE024B044A18
:10461000C3F8942008BD00BFE0110020C145000090
:1046200000100140AFF30080AFF30080AFF30080D3
:1046300000B583B001900091009B002B01D10D4B80
:104640000093019B1B7A012B0DD1019A0A4B9A42D0
:1046500009D10A4B094A526C42F010025A642520D3
:104660000C21FEF7EDFE01980099FFF779FE03B0EB
:104670005DF804FBE04A0000E01100200038024031
:1046800008B5FEF75DFF08BDAFF30080AFF3008013
:10469000704700BFAFF30080AFF30080AFF300803E
:1046A00069646C650000000000000000000000006C
:1046B00053562331000000005356233200000000FF
:1046C00053562333000000005356233400000000EB
:1046D00053562335000000005356233600000000D7
:1046E00053562337000000005356233800000000C3
:1046F0005356233900000000535623313000000088
:10470000535623313100000000000000000000007B
:10471000737461636B206F766572666C6F770000EF
:1047200063685654446F5469636B4900000000008D
:1047300063685654446F53657449000000000000DC
:1047400063685654446F52657365744900000000F5
:104750006368536368526561647949000000000032
:1047600063685468644372656174654900000000C1
:104770006368537973556E6C6F636B0000000000C3
:1047800063685468645365745072696F72697479B0
:104790000000000000000000000000000000000019
:1047A0006368546864536C656570530000000000D2
:1047B0006368546864457869745300000000000021
:1047C0006368546864576169740000000000000069
:1047D0006368546864526573756D65490000000034
:1047E0006368546864446F446571756575654E65AA
:1047F0007874490000000000000000000000000084
:104800006368537973556E6C6F636B000000000032
:10481000636854686452656C6561736500000000EC
:104820006D61696E00160218040460080C101418FB
:104830001C202122000000000000000000000000F9
:10484000636853656D4F626A656374496E6974008D
:10485000636853656D5761697454696D656F7574EC
:1048600053000000000000000000000000000000F5
:10487000636853656D5369676E616C4900000000A1
:1048800063684D74784F626A656374496E69740039
:104890006368537973556E6C6F636B0000000000A2
:1048A00063684D74784C6F636B5300000000000028
:1048B00063684D7478556E6C6F636B000000000088
:1048C000636845767442726F616463617374466CA9
:1048D0006167734900000000000000000000000054
:1048E00063684576745369676E616C490000000027
:1048F00063684D424F626A656374496E6974000073
:104900006368537973556E6C6F636B000000000031
:1049100063684D42506F7374530000000000000044
:1049200063684D42466574636853000000000000F0
:104930006368537973556E6C6F636B000000000001
:10494000636849515265616454696D656F7574009F
:1049500063684F51577269746554696D656F7574FA
:104960000000000000000000000000000000000047
:104970006368537973556E6C6F636B0000000000C1
:10498000636848656170467265650000000000005C
:104990006368537973556E6C6F636B0000000000A1
:1049A0006368506F6F6C46726565490000000000D7
:1049B00073745374617274416C61726D0000000015
:1049C0007374536574416C61726D000000000000E7
:1049D000B1310000E131000011320000413200002D
:1049E0006132000091320000B1320000E13200007B
:1049F00073645374617274000000000000000000D2
:104A00006368537973556E6C6F636B000000000030
:104A10007364496E636F6D696E67446174614900C8
:104A2000106002400860024000000B002860024055
:104A30000860024006010C0040600240086002402D
:104A400010020D00586002400860024016030E007C
:104A5000706002400C60024000040F008860024059
:104A60000C60024006051000A06002400C6002408D
:104A700010061100B86002400C60024016072F00BB
:104A800010640240086402400008380028640240B4
:104A9000086402400609390040640240086402408C
:104AA000100A3A005864024008640240160B3B00AA
:104AB000706402400C640240000C3C0088640240B8
:104AC0000C640240060D4400A06402400C640240E5
:104AD000100E4500B86402400C640240160F4600F8
:104AE00080250000000000400000000000000000E1
:104AF00000AAA02A00000000FFABFFFF5400014005
:104B0000FFFF00000000565500AA0A0080200800A0
:104B100040020000FFFFFFFF15455155FFFF000059
:104B2000000000044000000001802002000000009E
:104B3000FFFFFFFF54154554FFFF00000000006019
:104B4000000606000001005500000000FFFFFFFF07
:104B500055505500FF0F000000000000000000004D
:104B60004000000000000000FFFFFFFF0000000009
:104B7000FFFF000000000000000000000000000037
:104B800000000000FFFFFFFF00000000FFFF00002B
:104B90000000000000000000000000000000000015
:104BA000FFFFFFFF00000000FFFF0000000000000B
:104BB000000000000000000000000000FFFFFFFFF9
:104BC00000000000FFFF00000000000000000000E7
:104BD0000000000000000000FFFFFFFF00000000D9
:0C4BE000FFFF00000000000000000000CB
:04000003000001C137
:00000001FF
